:020000040800F2
:10000000B00300205D240008612400086324000878
:100010006524000867240008692400080000000027
:100020000000000000000000000000006B24000839
:100030006D240008000000006F24000871240008EF
:100040007324000823020008250200087324000816
:1000500027020008290200087324000873240008FE
:100060002B0200082D0200082F020008732400084C
:100070007324000873240008732400087324000804
:100080007324000873240008732400084102000848
:10009000430200084B0200084D0200084F0200080E
:1000A00051020008530200085502000857020008D8
:1000B00059020008732400085B0200085D02000872
:1000C0005F02000861020008630200086502000880
:1000D00067020008690200086B0200086D02000850
:1000E0006F020008710200087302000800F002F8B5
:1000F00000F05AF80AA090E8000C82448344AAF168
:100100000107DA4501D100F04FF8AFF2090EBAE865
:100110000F0013F0010F18BFFB1A43F0010318473B
:10012000382A0000582A00000A444FF0000C10F84A
:10013000013B13F0070408BF10F8014B1D1108BF65
:1001400010F8015B641E05D010F8016B641E01F805
:10015000016BF9D113F0080F1EBF10F8014BAD1C55
:100160000C1B09D16D1E58BF01F801CBFAD505E073
:1001700014F8016B01F8016B6D1EF9D59142D6D3CD
:10018000704700000023002400250026103A28BFF5
:1001900078C1FBD8520728BF30C148BF0B607047F9
:1001A0001FB51FBD10B510BD02F077F91146FFF75E
:1001B000F7FF00F00BF802F095F903B4FFF7F2FF38
:1001C00003BC00F0C1FA000030BF0000092000F0BD
:1001D00060FA482000F0F2F800F081F800F064F8CE
:1001E00001F02AFB4FF47A7000F004F909E00548A9
:1001F000007830B90120034908700121084600F059
:100200008AF8F4E75D000020704700BFFEE700BFFA
:10021000FEE700BFFEE700BFFEE77047704770478C
:100220007047704770477047704770477047704716
:100230007047704770477047704770477047704706
:10024000704710B500F0F2FA10BD70477047704764
:1002500070477047704770477047704770477047E6
:1002600070477047704770477047704770477047D6
:1002700070470C48006840F480200A4908607047C5
:1002800070477047704770477047704770477047B6
:1002900070477047704770477047704770477047A6
:1002A00070470000140401403E48406820F480007C
:1002B0003C4948600846C06940F40000C861704786
:1002C00003203949086070473848817A19B10521FF
:1002D000354A116002E00121334A1160704710B5C0
:1002E0003348006840F480203149086030480830C5
:1002F000006840F480202E4908310860022314224F
:100300000021012000F0CAF802232A220021084619
:1003100000F0C4F810BD7CB504460D4600200090E6
:1003200001908DF800408DF803509DF8000060B9F1
:10033000012001F0ADFE064608223146684601F074
:1003400083FC012001F060FD0BE0022001F0A0FE23
:10035000064605223146684601F076FC022001F08F
:1003600053FD7CBD10B5134B18681B1D19681B1D70
:100370001A68A8B1104CA070030A2371030CA37172
:10038000030E2372A1720B0A23730B0CA3730B0EC3
:100390002374A274130A2375130CA375130E23760A
:1003A00010BD0000001002401001002034010020A8
:1003B00000040140E8F7FF1F040000204FF0E02197
:1003C000096921F004014FF0E0221161C21700EB2E
:1003D0005272C2F3C702234B1A701946097801EB17
:1003E0004102C2EBC1114FF6FF7202EAC1011E4A7F
:1003F0001180704701461C4A12884A434FF0E0239F
:100400005A6100229A6101221A6100BF4FF0E02276
:10041000106900F001021AB100F48032002AF5D010
:1004200000224FF0E0231A619A61704701460D4A9D
:1004300012784A434FF0E0235A6100229A61012268
:100440001A6100BF4FF0E022106900F001021AB1FA
:1004500000F48032002AF5D000224FF0E0231A6128
:100460009A6170470000002002000020AA4A0A405A
:100470000243AA4B1A6070470146072323EA010290
:100480001202A64B1B1D18684FF6FF031840A44B21
:1004900018431043A14B1B1D186070472DE9F0470E
:1004A0008046894614461D462046E11704EB9171AB
:1004B000C1F3870AE11704EB91718910A4EB810164
:1004C000CFB2042000EBC700C7B22846FFF7D4FF25
:1004D000C5F1040008FA00F60F20284100EA0900DF
:1004E000064306F00F06202C09DA8E480168012029
:1004F000A04001434FF0E020C0F800110BE0894814
:10050000001D0068A4F1200101228A4010434FF031
:10051000E021C1F80401844850F82A0006FA07F1E6
:100520000843814941F82A00BDE8F08770B50446C8
:100530000B46CE1701EB9676C6F38700CE1701EB7C
:100540009676B610A1EB8606B606350E774B9B69FC
:1005500043F00103754EB3614FEAB63353F82030D0
:100560000F26AE40B343724E46F82030334653F860
:10057000203004FA05F61E436D4B43F820606D4BA6
:100580001B6801268E4033436A4E336002F001033C
:1005900043B1684B0C331B6801268E403343654ED4
:1005A0000C36336002F0020343B1624B08331E681D
:1005B00001238B401E435F4B08331E6070BD00B5A6
:1005C00000205A490861C8601420486100208861F1
:1005D000C8610846006840F00100086008464068AD
:1005E0005549084051494860084600685349084049
:1005F0004E4908600846006820F4802008600846DC
:10060000406820F4FE0048600020886000214FF020
:100610000060FFF72BFF00BD10B5404808300068B0
:1006200040F004003D49083108604048C06940F08E
:1006300080503E49C8614248406840F4807040495B
:1006400048600846006840F00400086008460068FA
:1006500040F002000860FFF7B7FD10BD3048001DF4
:100660002E49091D08607047014649062F4A9269C4
:1006700042F001022D4B9A612D4A083A526822F04D
:10068000E0622B4B083B5A601A4652680A435A6094
:10069000704730B504460025FFF791FF23480068F6
:1006A00040F480302149086000BF20480068400CB9
:1006B0000028FAD04FF480601C494860A01EC4B2E4
:1006C0000846406840EA844048600846406840F474
:1006D000803048601B48006840F0320019490860CB
:1006E0001248006840F080701049086000BF0F4851
:1006F0000068400E0028FAD00C48406840F0020024
:100700000A49486005E009484068C0F3870505F0DC
:100710000305022DF7D130BD80FFFF1F08ED00E07B
:100720000000FA0500E100E000E400E000100240F3
:1007300008000140000401400000FFF8FFFFF6FE42
:100740000070004000200240014600BF704700BF1B
:10075000324A128802F04002002AF9D0C2B22F4B6E
:100760001B1D1A8070472DE9F05F05460E463001CB
:1007700002F00AF881462A4905FB01F002F004F86C
:100780008246494601F01EFF0746384601F0DCFF6D
:1007900084B2204601F0F8FF8346394602F0D4F8CF
:1007A00082464FF0834102F003F8814601F0CCFF0E
:1007B00080464FF6FF7000EA041404EB080084B290
:1007C0001848806940F0040016498861084680692D
:1007D00040F4804088611448006820F47F6012492A
:1007E00008600846006840F40B6008600D48C06867
:1007F00040F480400B49C8600846C06820F480403F
:10080000C860064808300480001D008842F20C01D0
:10081000084302490C310880BDE8F09F00380140D0
:1008200040420F00001002400408014010B53D484E
:1008300000683D4908800846008800F480603B4914
:100840000988084030B14FF6FF3036490860384912
:10085000486880473448008800F4005033490988CC
:10086000084018B14DF6FF702E4908602E480088E8
:1008700000F480502D490988084030B14EF6FF70D1
:1008800028490860002000F0EDF92748008800F4AE
:10089000006026490988084060B12648007810B1F8
:1008A00000F0C0F902E0022000F0DCF94FF2FF7026
:1008B0001C4908601C48008800F400701B49098826
:1008C000084040B14FF6FF50164908601A480078BA
:1008D000401C194908701448008800F480701349BE
:1008E0000988084030B14FF6FF600E4908600720C4
:1008F00000F0B8F90C48008800F400400B49098862
:10090000084008B100F0B6FF10BD00200B49087088
:10091000704700200A490870704710B5012001F0A7
:1009200086FA10BD445C0040200000202A0100200F
:100930006800002014010020220000205C0000203C
:100940005D00002010B5FFF70DFD002095490968F6
:10095000887200F045F90020934908604FF43F4049
:1009600092490880084600888F49091F08600020C6
:100970008F49086010BD10B500208A490968887247
:1009800088490968C8728B48C079864909684872E5
:10099000002001F0A5F94FF40071002001F0BAF930
:1009A0001021002001F0CFF91821002001F05BFB9D
:1009B0005821002001F04AFB002001F069FA7E482E
:1009C00090F82C10002001F09CFB002001F02FFA81
:1009D0004FF4C061012001F09DF94FF480710120B6
:1009E00001F034FB0821012001F069FB20210120E6
:1009F00001F0A9F94FF48871012001F034FB0221C4
:100A0000012001F07EFB4FF44051012001F0B5F9C7
:100A10004FF4C061022001F07DF94FF49071022083
:100A200001F014FB0521022001F049FB20210220E6
:100A300001F089F901205E490860002000F070FE95
:100A400010BD7047704770477047014629B90120B3
:100A5000544A12681082002070475848FCE710B5CD
:100A600004465749204600F041FB10BD10B504462E
:100A70005449204600F03AFB10BD10B50446012051
:100A8000514908705149204600F030FB10BD10B5A7
:100A900004464F49204600F029FB10BD70B50446BE
:100AA0000025062C29D13F480068007800F07F001F
:100AB000012822D13B480068407902281DDA3948D4
:100AC00000688078222809D136480068407910B93A
:100AD000AFF245051CE0AFF25D0519E03148006852
:100AE0008078212814D12F480068407910B9AFF2DE
:100AF00083050DE0AFF299050AE02A480068007806
:100B000000F07F00212803D1032C01D1AFF2C505ED
:100B10000DB9022070BD234800688561002121487D
:100B2000006841820020A8470020F3E71D480068C4
:100B3000C178224801600020704700B5024619487C
:100B40000068007800F07F00212804D10B2A02D130
:100B5000FFF7ECFF00BD0220FCE710B504461D497D
:100B6000204600F0C3FA10BD10B504461A492046CD
:100B700000F0BCFA10BD70B504460A480068C5789C
:100B8000164800EBC501204600F0B0FA70BD0246E1
:100B9000002901DD02207047002A01DD0220FAE76A
:100BA0000020F8E720010020445C00402A010020DA
:100BB00010010020582A0008680000206000002072
:100BC000E4000020D40000200C010020DC00002004
:100BD000CC000020BC000020C4000020EC0000205D
:100BE00001214A4801600020494A108010460088CF
:100BF000464A10600020121D10604FF4E050444A35
:100C0000108010460088414A106000207047012083
:100C10003E4908600020091D08600320091F086084
:100C20000020704710B53948006884B244F00804C9
:100C300036480460006884B244F004043348046019
:100C4000FFF73EFB10BD10B53048006884B224F0B9
:100C500004042E480460FFF737FB4FF43F402B4954
:100C6000086010BD70B50546072D01D029480570F4
:100C700028480078082841D2DFE800F0040A10165E
:100C8000212E4142FFF7DFFF0620224908703BE09A
:100C9000FFF7D9FF04201F49087035E002201D49E5
:100CA0004870032008702FE01A484078401E194908
:100CB00048700846407808B90420087024E01348BA
:100CC000006884B244F01004104804600520114903
:100CD00008700A20487017E00E484078401E0D4901
:100CE00048700846407840B90848006884B224F04B
:100CF0001004064804600620087005E000BF00BF2D
:100D000006200449087000BF00BF70BD405C004071
:100D10002A0100201501002010B504462CB901203D
:100D2000F94909680882002010BDF8490968086877
:100D30008047F54800680A30F6E710B5F2480068C9
:100D4000C078F3494978884213DCEF48006880781E
:100D500078B9ED480068808858B9EB480068C078D9
:100D6000E94909688872E9490968486880470020AC
:100D700010BD0220FCE710B504462CB90120E24961
:100D800009680882002010BDE0490968886880472A
:100D9000DD4800680C30F6E710B5DB4B1B68D978EE
:100DA000D94B1B685879DB4B1B689A6990470446FE
:100DB000D5480068807AE8B13CB9D348006800792A
:100DC00018B9D1480068807808B1022010BD8CB9EC
:100DD000CE490968C8688047CB4800684079CA494D
:100DE0000968C872C8480068C078C74909680873AC
:100DF0000020EBE70220E9E710B504462CB90220F9
:100E0000C14909680882002010BD0020C24908803D
:100E1000BD480068007800F07F00E0B9BA49096871
:100E2000487A00F0200129B1BB49097841F002015C
:100E3000B94A117000F0400131B1B749097801F0A9
:100E4000FE01B54A117005E0B349097841F001018E
:100E5000B14A11703AE0AC480068007800F07F00B9
:100E6000012801D1AC48CFE7A7480068007800F01E
:100E70007F00022828D1A44A1268517901F00F009E
:100E800001F080027AB1A54B03EB8002D2F8002C6E
:100E900002F03002102A16D19F4A127842F0010265
:100EA0009D4B1A700FE09D4B03EB8002D2F8002C93
:100EB00002F44052B2F5805F05D1974A127842F0B1
:100EC0000102954B1A7001E000209DE78F490968E7
:100ED00008698047904897E72DE9F0478A480068FD
:100EE000007800F07F08B8F1000F0AD1864800684A
:100EF000407A00F0DF008449096848720020BDE8AC
:100F0000F087B8F1020F7DD17F480068408818B99A
:100F10007D480068007908B10220F0E7DFF8F09121
:100F200079480068477927F080052C4676480068A4
:100F3000407900F0800038B1784901EB8400D0F8A6
:100F4000000C00F0300606E0744901EB8400D0F894
:100F5000000C00F4405699F80000A84204D91EB1D4
:100F600069480068807A08B90220C8E707F0800065
:100F700080B16A4901EB8400D0F8000C00F0300029
:100F8000102843D1E0B201F031F8E0B2302100F096
:100F9000DAFE3BE0614901EB8400D0F8000C00F47C
:100FA0004050B0F5805F31D1C4B95D4A92F82C1041
:100FB000E0B201F0A6F8594A02EB8401D1F8001C16
:100FC0004BF68F7201EA020080F4805080F40050EA
:100FD000524A02EB8401C1F8000C17E0E0B200F0C5
:100FE000EEFF4E4A02EB8401D1F8001C4BF68F72E3
:100FF00001EA020080F4805080F40050474A02EB7E
:10100000840100E008E0C1F8000C00BF3F49096816
:1010100048698047002072E700BF02206FE72DE992
:10102000F04139480068467926F080073C4636484A
:101030000068407900F0800038B1384901EB840045
:10104000D0F8000C00F0300506E0344901EB8400D4
:10105000D0F8000C00F440552D480078A04208D983
:1010600029480068408820B91DB127480068807A67
:1010700010B90220BDE8F08106F0800080B1274A57
:1010800002EB8401D1F8001C48F6BF7201EA0200AD
:1010900080F01000214A02EB8401C1F8000C10E03E
:1010A0001E4A02EB8401D1F8001C4BF68F7201EA54
:1010B000020080F48050194A02EB8401C1F8000C50
:1010C00000BF12490968886980470020D2E710B53F
:1010D0000D480068407A40F020000B4909684872CA
:1010E0000A490968C8698047002010BD10B502464A
:1010F00005480068438AAAB98888C01A024C246847
:101100002082002010BD0000200100202C010020C2
:10111000640000202401002018010020005000403D
:101120006800002008681844ECE72DE9F041FE480B
:10113000006800F110042688A068C0B1BEB1A5887F
:10114000B54200D93546A8B2A1688847074620882D
:10115000401B2080608828446080002000F0A3FFAE
:101160008046AAB24146384600F088FD00BF20887C
:1011700050B14FF44050ED4908800021084600F07E
:101180009EFF3020EA4908802088A188884204DB3D
:101190000320E5490968087218E02088002804DD6A
:1011A0000520E1490968087210E0208870B906201E
:1011B000DD49096808720021DE48006880B2801CA1
:1011C000DD4A42F810103020D9490880BDE8F0818E
:1011D0002DE9F047D448006800F110052E88D24868
:1011E0000068077AD6B9042F18D1D44800780128AE
:1011F0000FD10021CF48006880B2801CCE4A42F84F
:1012000010103020CA49088000BF0020CB49087068
:1012100003E007271020C649088027E0AC88A642D3
:1012200001D8042000E002200746B44200D9344629
:10123000A0B2A96888478046002000F029FF8146B7
:10124000A2B24946404600F0FFFCA1B2002000F0E7
:1012500036FF2888001B288068882044688030205A
:10126000B34908800002B149088000BFAE4909684F
:101270000F72BDE8F08770B50226AB48006844786D
:10128000A9480068007800F07F0000284AD1092CA6
:1012900003D1FFF752FD064665E0052C14D1A248A4
:1012A0000068C0787F280BDC9F480068807838B9D8
:1012B0009D480068808818B99B480068807A08B10A
:1012C00008256BE000264EE0032C14D196480068F8
:1012D000C07801280DD194480068808848B99248A8
:1012E0000068407A00F0200018B1FFF7F0FE0646D3
:1012F00039E0022637E0012C35D18B480068C078F0
:1013000001280DD188480068808848B9864800685F
:10131000407A00F0200018B1FFF7DEFD064622E01B
:10132000022620E080480068007800F07F00012855
:1013300005D10B2C17D1FFF72FFD064613E07A4895
:101340000068007800F07F0002280BD1012C03D147
:10135000FFF7C2FD064606E0032C04D1FFF75FFE4F
:10136000064600E002264EB1E0B2754A12685169A5
:1013700088470646032E01D109250FE00EB1082546
:101380000CE0062500216B48006880B2801C6A4A88
:1013900042F8101030206649088000BF6249096891
:1013A0000D7270BD2DE9F84F5F4800684578002741
:1013B000BA46062D1BD15C480068007800F07F001B
:1013C000002813D1584909688878012803D15C495D
:1013D0000968CF690AE0022803D1594909680F6AF0
:1013E00004E0032802D1564909684F6A99E0002DAC
:1013F00067D14D4800684088002862D14A4800689B
:10140000C08802285DD1484800680079002858D17A
:1014100045480068007800F07F0030B94248006815
:10142000808810B9AFF22F677BE03F4800680078F2
:1014300000F07F00012811D13B49096848794049F3
:1014400009688A690021904700286AD136480068F7
:10145000807A002865D0AFF25F6762E032480068AA
:10146000007800F07F0002285BD12F4800684079A7
:1014700000F00F062C480068407900F070092A48F7
:101480000068407900F0800038B12E4901EB8600F9
:10149000D0F8000C00F0300806E02A4901EB860085
:1014A000D0F8000C00F4405827480078B04238D9F2
:1014B000B9F1000F35D1B8F1000F32D0AFF2C767E4
:1014C0002FE0082D08D118480068007800F07F0050
:1014D00038BBAFF2BB7724E00A2D22D11248006856
:1014E000007800F07F0001281BD10F480068807A47
:1014F000B8B10D480068408898B90B480068007979
:1015000078B909480068C08801280AD106490968E5
:1015100048790B4909688A690021904708B9AFF2F8
:10152000A977EFB1004811E0200100203001002030
:1015300032010020505C0040006000401A01002091
:101540002401002000500040640000200068A0F842
:1015500012A0AE48006887610020B84700240FE061
:10156000AA4A12685078AA4A126811698847044644
:10157000032C05D10920A54909680872BDE8F88F38
:10158000A2480068008A4FF6FF71884204D1092002
:101590009E4909680872F1E7022C03D09B48006855
:1015A000008A20B90820994909680872E6E7974837
:1015B0000068007800F08000E0B394480068C088BC
:1015C000009092480068008A0099884204D98F49A7
:1015D00000980968088223E08C480068008A8B49DB
:1015E0000968C98888421BDA88480068008A8849E7
:1015F000096891F82C10884203DA002085490870A8
:101600000EE082480068008A8149096891F82C1030
:1016100090FBF1F201FB120010B901207D49087026
:101620007B48006890F82C10784800688182FFF7AA
:10163000CFFD07E0FFE70320744909680872000343
:101640007549088000BF99E710B5744890F82C10D0
:10165000002000F056FD6D480068007A082805D18A
:1016600040026D49088010206D4908806748006875
:10167000007A092801D1012010BD0020FCE708B53F
:101680006848006880B2001D674931F8100080B2D8
:1016900001EB400000905D480068007A09282FD0D7
:1016A000009800785949096808700098401C00901B
:1016B000009800785549096848700098401C0090CF
:1016C0000098801C0090009931F8020B009100F006
:1016D000B9FE4E49096848800098801C0090009926
:1016E00031F8020B009100F0ADFE4849096888808E
:1016F0000098801C00900098008844490968C880C0
:10170000012042490968087240480068C08810B941
:10171000FFF7B1FD01E0FFF745FEFFF795FF08BDBC
:1017200030B50146414B1A78002011E00306404CC9
:1017300004EB9353D3F8003C48F68F742340C4B2B3
:10174000234304063A4D05EB9454C4F8003C401C76
:101750009042EBD341F08003324C241F236030BD14
:1017600010B52A480068047A022C01D0042C05D157
:10177000FFF72EFD25480068047A1CE0062C19D1DD
:1017800022480068407805280ED12048006800787B
:1017900000F07F0040B91D490968C878FFF7C0FF15
:1017A00024490968086A8047194909688868804798
:1017B000082400E00824154909680C72FFF744FF6B
:1017C00010BD10B511480068047A032C01D0052C17
:1017D00005D1FFF7AAFC0D480068047A0EE0072C3B
:1017E00005D10B490968C8688047082406E0022C27
:1017F00001D0042C01D1082400E008240349096821
:101800000C72FFF721FF10BD70470000200100207F
:10181000240100201A01002030010020680000206F
:1018200032010020505C0040006000406400002055
:10183000005000402C01002010B5084808490860FD
:1018400002200968087207480749086007480849E4
:101850000860054909680868804710BD3401002008
:1018600020010020680000202401002098000020B2
:101870002C01002010B5002473E147F6FF70EA49FF
:101880000860EA48008800F00F00E949087008463F
:10189000007800287ED1E4484438006800F44050C5
:1018A000E4490880E0484438006800F03000E2492C
:1018B0000880DD49443909684BF68F7201EA02005D
:1018C00080F40050D84944390860096848F6BF726E
:1018D00001EA020080F02000D34944390860D3486F
:1018E000008800F01000002838D10846006848F64B
:1018F0000F710840CC4944390860FFF731FFCA49ED
:10190000443909684BF68F7201EA0200C949098817
:1019100001F4805109B180F48050C649098801F46E
:10192000005109B180F40050BF494439086009688A
:1019300048F6BF7201EA0200BF49097801F01001C0
:1019400009B180F01000BC49097801F0200109B10B
:1019500080F02000B4494439086010BDB2484438D2
:10196000006884B204F08000D8B3AF4844380068FF
:1019700048F60F710840AC4944390860FFF7F0FEA3
:10198000A949443909684BF68F7201EA0200A94956
:10199000098800E0A6E001F4805109B180F480508C
:1019A000A449098801F4005109B180F400509E490E
:1019B00044390860096848F6BF7201EA02009E498E
:1019C000097801F0100109B180F010009A490978F6
:1019D00001F0200109B180F02000934944390860EA
:1019E000BBE7FFE704F40060D8B38F4844380068D1
:1019F000C0F30E0048F68F7108408B4944390860E7
:101A0000FFF73DFE8849443909684BF68F7201EAB9
:101A100002008849098801F4805109B180F480509E
:101A20008449098801F4005109B180F400507E49CD
:101A300044390860096848F6BF7201EA02007E492D
:101A4000097801F0100109B180F010007A49097895
:101A500001F0200109B180F0200073494439086089
:101A60007BE7FFE704F4004000287AD06E48443852
:101A70000068C0F30E0048F68F7108406A49443987
:101A80000860FFF79EFE6849443909684BF68F727B
:101A900001EA02006749098801F4805109B180F424
:101AA00080506449098801F4005109B180F4005064
:101AB0005D4944390860096848F6BF7201EA0200CE
:101AC0005D49097801F0100109B180F010005A4910
:101AD000097801F0200109B180F020005249443911
:101AE00008603AE752480078544901EB8000D0F88A
:101AF000000C84B204F40040C0B14D48007801EB02
:101B00008000D0F8000CC0F30E0048F68F7108403A
:101B100047490978494A02EB8101C1F8000C444960
:101B20000978491E464A52F82100804704F0800097
:101B3000B8B13F480078414901EB8000D0F8000C73
:101B400048F60F7108403A4909783C4A02EB810196
:101B5000C1F8000C36490978491E3A4A52F821006A
:101B600080473148006880B23049088000F4004066
:101B700000287FF482AE00BFEFE610B5002449E0F4
:101B800047F6FF70284908602848008800F00F00D9
:101B90002749087008460078284901EB8000D0F8F2
:101BA000000C84B204F40040C8B12148007801EB75
:101BB0008000D0F8000CC0F30E0048F68F7108408A
:101BC0001B4909781D4A02EB8101C1F8000C184934
:101BD0000978491E1A4A52F8210080471AE004F099
:101BE0008000B8B112480078144901EB8000D0F8A9
:101BF000000C48F60F7108400D4909780F4A02EBB6
:101C00008101C1F8000C0A490978491E0D4A52F8B1
:101C1000210080470448006880B20449088000F42D
:101C200000400028ACD110BD445C004020000020E2
:101C30001C01002030010020320100200050004033
:101C40004000002024000020F0B5144604F1010CEF
:101C50004FEA6C07DFF848C00CEB41033D460AE051
:101C60000678401C90F800C046EA0C2223F8022BAC
:101C70009B1C401C6D1E002DF2D1F0BDF0B5561C12
:101C80007510074E06EB41042B4605E034F8047B43
:101C900020F8017B401C5B1E002BF7D1F0BD00003B
:101CA00000600040F74908607047F648006880B25D
:101CB0007047F449091D08607047F248001D00682C
:101CC00080B27047EF480830006880B27047ED4935
:101CD0000C3108607047EB480C30006880B27047E8
:101CE0004FF6F8710140E74A103211607047E5483D
:101CF0001030006880B27047E34B03EB8002C2F8FB
:101D0000001C70470146E04A02EB8100D0F8000C4D
:101D100080B2704710B5DC4B03EB8002D2F8002C88
:101D200048F68F131A400A43D74C04EB8003C3F8DC
:101D3000002C10BD0146D44A02EB8100D0F8000C03
:101D400000F4C060704710B5CF4C04EB8003D3F8AB
:101D5000003C48F6BF7403EA040201F010030BB123
:101D600082F0100201F020030BB182F02002C64C79
:101D700004EB8003C3F8002C10BD10B5C24C04EB7B
:101D80008003D3F8003C4BF68F7403EA040201F49D
:101D900080530BB182F4805201F400530BB182F4F2
:101DA0000052B94C04EB8003C3F8002C10BD30B5D1
:101DB00003460C461846FFF7A5FF0546012C07D140
:101DC00025F48050B04A02EB8301C1F8000C08E012
:101DD000022C06D125F01000AB4A02EB8301C1F8BA
:101DE000000C30BD0146A84A02EB8100D0F8000C7F
:101DF00000F0300070470146A34A02EB8100D0F8A2
:101E0000000C00F4405070479F4B03EB8002D2F867
:101E1000002C48F6BF7302EA030181F0100181F043
:101E20002001994B03EB8002C2F8001C7047964BCF
:101E300003EB8002D2F8002C4BF68F7302EA030109
:101E400081F4805181F400518F4B03EB8002C2F882
:101E5000001C70478C4A02EB8001D1F8001C41F451
:101E6000807148F68F721140874B03EB8002C2F8F5
:101E7000001C7047844A02EB8001D1F8001C48F630
:101E80008F621140804B03EB8002C2F8001C704748
:101E90007D4A02EB8001D1F8001C48F68F621140A8
:101EA000794B03EB8002C2F8001C7047764A02EBC4
:101EB0008001D1F8001C41F4807148F68F72114006
:101EC000714B03EB8002C2F8001C70476E4A02EBB4
:101ED0008001D1F8001C41F4807148F68F721140E6
:101EE000694B03EB8002C2F8001C7047664A02EBA4
:101EF0008001D1F8001C48F68F621140624B03EB61
:101F00008002C2F8001C704701465F4A02EB810064
:101F1000D0F8000C00F03000102801D101207047EB
:101F20000020FCE70146584A02EB8100D0F8000C83
:101F300000F44050B0F5805F01D1012070470020CF
:101F4000FCE7514A02EB8001D1F8001CC1F30E01FD
:101F500048F68F7211404C4B03EB8002C2F8001C14
:101F60007047494A02EB8001D1F8001C48F60F7215
:101F70001140454B03EB8002C2F8001C7047424AF7
:101F800002EB8001D1F8001C48F68F72114041F439
:101F900080413D4B03EB8002C2F8001C70473A4A77
:101FA00002EB8001D1F8001C48F68F72114041F01D
:101FB0004001354B03EB8002C2F8001C7047324AE7
:101FC00002EB8001D1F8001C01F4804169B102EB01
:101FD0008001D1F8001C48F68F72114041F4804115
:101FE000294B03EB8002C2F8001C7047264A02EB23
:101FF0008001D1F8001C01F0400169B102EB8001C1
:10200000D1F8001C48F68F72114041F040011E4B80
:1020100003EB8002C2F8001C704710B51A4B03EBAB
:102020008002D2F8002C48F68F731A400A43164CEF
:1020300004EB8003C3F8002C10BD0146124A02EBEA
:102040008100D0F8000C00F00F00704710B54A1066
:1020500052000C4B10331B689BB203EBC0030B4CBC
:1020600044F8132010BD10B54A105300054A103231
:10207000126892B202EBC002121D044C44F81230F6
:1020800010BD0000405C0040005000400060004077
:102090000146EF48006880B200EBC100ED4A32F81B
:1020A000100080B270470146E948006880B200EB3A
:1020B000C100001DE74A32F8100080B27047E44AC0
:1020C000126892B202EBC002921CE24B43F812106B
:1020D000704702463E290BDD481101F01F030BB982
:1020E000431E98B24FF4004343EA8023136007E095
:1020F000481001F001030BB1431C98B28302136036
:10210000704710B50246D248006880B200EBC200AA
:10211000801DD04C04EB40033E290BDD481101F03B
:102120001F040CB9441EA0B24FF4004444EA8024BA
:102130001C6007E0481001F001040CB1441CA0B27F
:1021400084021C6010BD0146C148006880B200EBEB
:10215000C100801CBF4A32F81000C0F3090070476C
:102160000146BB48006880B200EBC100801DB94A3F
:1021700032F81000C0F30900704730B54B105B0017
:10218000B34C2468A4B204EBC004B24D45F814303B
:1021900053105C00AE4B1B689BB203EBC0031B1DCE
:1021A00045F8134030BD10B54A105200A84B1B68CB
:1021B0009BB203EBC003A74C44F8132010BD10B52D
:1021C0004A105300A24A126892B202EBC002121DDA
:1021D000A04C44F8123010BD01469D48006880B202
:1021E00000EBC1009B4A32F8100080B270470146F4
:1021F0009748006880B200EBC100001D954A32F894
:10220000100080B2704730B50B46012B1FD19049AA
:10221000096889B201EBC001891C8E4D05EB4104B0
:102220003E2A0BDD511102F01F050DB94D1EA9B25A
:102230004FF4004545EA8125256007E0511002F082
:1022400001050DB14D1CA9B28D0225600AE0022BDB
:1022500008D17F49096889B201EBC001891C7D4C16
:1022600044F81120012B1FD17949096889B201EB8B
:10227000C001891D774D05EB41043E2A0BDD51114C
:1022800002F01F050DB94D1EA9B24FF4004545EAF5
:102290008125256007E0511002F001050DB14D1CAC
:1022A000A9B28D0225600AE0022B08D168490968AD
:1022B00089B201EBC001891D664C44F8112030BD84
:1022C00030B5034601291FD16148006880B200EB98
:1022D000C300801C5F4D05EB40043E2A0BDD50110E
:1022E00002F01F050DB9451EA8B24FF4004545EA9E
:1022F0008025256007E0501002F001050DB1451C56
:10230000A8B2850225600AE0022908D15048006879
:1023100080B200EBC300801C4E4C44F8102030BD4E
:1023200030B5034601291FD14948006880B200EB4F
:10233000C300801D474D05EB40043E2A0BDD5011C4
:1023400002F01F050DB9451EA8B24FF4004545EA3D
:102350008025256007E0501002F001050DB1451CF5
:10236000A8B2850225600AE0022908D13848006831
:1023700080B200EBC300801D364C44F8102030BD05
:1023800001463348006880B200EBC100801C314A2E
:1023900032F81000C0F30900704701462C4800686D
:1023A00080B200EBC100801D2A4A32F81000C0F351
:1023B0000900704701462648006880B200EBC10062
:1023C000801D244A32F8100000F47C4008B101203E
:1023D00070471F48006880B200EBC100801C1D4A96
:1023E00032F81000C0F3090008B10220F0E7002025
:1023F000EEE710B501290FD1174B03EB8002D2F89D
:10240000002C48F68F731A4042F04002124C04EB45
:102410008003C3F8002C10E002290ED10E4B03EB11
:102420008002D2F8002C48F68F731A4042F48042A2
:10243000094C04EB8003C3F8002C10BD024641EAAE
:10244000022070470146CAB20B1243EA02207047CD
:10245000505C0040006000400050004008480047C9
:10246000FEE7FEE7FEE7FEE7FEE7FEE7FEE7FEE744
:10247000FEE7FEE703480449024A044B70470000A8
:10248000ED000008B0010020B0030020B0010020E2
:1024900070477047704770477047754600F02CF8DA
:1024A000AE4605006946534620F00700854618B041
:1024B00020B5FFF7DFFFBDE820404FF000064FF0EA
:1024C00000074FF000084FF0000B21F00701AC4669
:1024D000ACE8C009ACE8C009ACE8C009ACE8C00988
:1024E0008D46704710B50446AFF300802046BDE826
:1024F0001040FDF762BE0000004870475001002008
:1025000090EA010F48BF81F0004100F12E82421A8B
:102510003CBF801A89184FEAD0524FF07F4C1CEA1A
:10252000410FA2EBD15318BF9CEA026F00F03B8031
:102530004FF0004C4CEA00204CEA012121FA03FC48
:1025400010EB0C0C1ED202F1FF325FEA1C2040EBB4
:10255000C25038BF70471CF07F0F4FEA400C18BFC5
:10256000BCF17F4F38BF7047C3F12003994008BFCB
:1025700020F00100BCF17F4F38BF7047A0F1C04090
:1025800000F0DDB94FEA3C00000A40EBC25028BF22
:102590001CF0FF0F4FEA400CE6D018BFBCF17F4F94
:1025A00038BF7047EAE79CEA026F05D010EA5C0F7B
:1025B00008BF00F00040704710B500F07AF900BF86
:1025C00064FBBE3E4FF47F0C1CEAD0121EBF1CEA17
:1025D000D11392EA0C0F93EA0C0F00F0858090EA79
:1025E000010F48BF42F4807240F4000C41F4000037
:1025F0002CF07F4120F07F4000B58142A2EB030226
:102600000FF2081CACEB504EC0F100009EF800E049
:102610004FEA4E0E00FB0EFC38BF49004FEA2C1C5F
:1026200002F5FA020CFB0EF34FEACE1E4FEA112C14
:102630004FEAC1210EEB635E42EB22420EFB0CFC23
:102640004FEA1C5300FB03114FEA112C4FEA0131F2
:102650000EFB0CFC4FEADC4C00FB0C11C14228BF06
:1026600009184CEB03335DF804EB10EB410143EB2D
:10267000C250B2F57C0F38BF704729D512F0F00F69
:102680001CBF00F1C04000F0004070470081828311
:102690008485868788898B8C8D8E8F919293959671
:1026A00097999A9C9D9FA0A2A3A5A7A8AAACAEB0FB
:1026B000B2B3B5B7B9BCBEC0C2C5C7C9CCCED1D400
:1026C000D7D9DCDFE2E6E9ECF0F3F7FAFE00000030
:1026D0004FEA400C0CF1807CBCF17E4F28BF704764
:1026E000B0F1C04000F02BB990EA010F0CEAD11311
:1026F00048BF42F48072624538BF634507D213F485
:102700007F0F16D080EA010000F00040704710B53E
:1027100000F0CFF8097EFC3E00F005B880EA010029
:1027200000F00040704780EA010000F0004000F037
:1027300006B912F47F0F04BF0248704780EA010017
:1027400000F0FDB80000C07FC10DD1F19E0206DB94
:102750004FEA002343F0004323FA02F0704700429F
:1027600007D54FEA4001B1F1FE4F02D24FF0000011
:10277000704710B500F09DF8499224800020704702
:102780006FEA200070470000B0FA80F310FA03F2FD
:10279000C3F19D030AD0D90501EB1220530638BFBF
:1027A000704700F1010008BF20F0010070470000F1
:1027B0004FF47F0C1CEAD0121EBF1CEAD11392EA20
:1027C0000C0F93EA0C0F00F0478090EA010F48BF0E
:1027D00042F480724FF0004C4CEA00204CEA012198
:1027E00002EB0302A0FB0113A2F50002002918BFAF
:1027F00043F001035B0028BF4FEA330342EB224260
:102800005FEA132C4CEBC2502EBFBCEB436FB2F50A
:102810007C0F70474FEA036CBCF1004F08BF20F0FB
:102820000100B2F57C0F38BF70470BD582F0FF0274
:1028300012F5803FC8BF704700F1C040D8BF00F01C
:102840000040704700F5000C5FEA4C0C48BF704731
:10285000B0F1C04000F073B890EA010F0CEAD11358
:1028600048BF42F48072624538BF634504D280EAB3
:10287000010000F00040704710B500F01AF800BFEA
:102880008900013E00F007B800F009B85FEA410C8A
:102890005FEA1C6C08D080EA010000F050B85FEAE3
:1028A000400C5FEA1C6CF6D14FF00040A0F58000B0
:1028B00070470EF1020E2EF0030E5EF8044B244218
:1028C00004D44FEA4102B2F17F4F11D84FEA4003DE
:1028D000B3F17F4F0CD80ED14FEAD07CB2F17F4FCD
:1028E0000CEB4C0C0CF1020C08BF4CEBD17C04E05F
:1028F0004FF0080C01E04FEAD17C0CEB4C0324FABA
:1029000003F404F00704B4F1040C06D20EEB840CBB
:10291000BDE810404CF0010C6047DFE80CF0070800
:1029200002024FF00040A0F5800010BD08464200B2
:1029300018BFD2F1807288BF00F0004010BDFF21A7
:1029400041EAD050C005704780F0004090EA010F86
:102950007FF5DDAD81F0004100F007B890EA010F8E
:1029600048BF81F000413FF5D2AD421A04D882F051
:102970000042A0EB020011444FEAD0524FF07F4CCE
:102980001CEA410FA2EBD15318BF9CEA026F4AD058
:102990004FF0004C4CEA00204CEA012121FA03FCE4
:1029A000B0EB0C0C0FD412F0FE0F36D05FEA4C00E7
:1029B0001DD5001240EBC25038BF70471CF03F0FCE
:1029C00018BF70470BE0A2F101025FEA1C2040EB48
:1029D000C25038BF70471CF07F0F18BF7047C3F15B
:1029E0002003994014BF401E20F00100704780086A
:1029F0004FEA122308BF7047B0FA80FCA2EB0C022A
:102A0000CCF1280C60FA0CF093EA122F04BF00EB13
:102A1000C25070474FEAC3707047130A5FEADC1078
:102A200008BF7047F6E79CEA026F04D010EA5C0F1B
:102A300008BF0020704710B5FFF73BFF40DFF63EB0
:102A400081F00040704712010002000000401111A7
:102A5000111100020102030109024200020100807B
:102A600032090400000203010100092110012101C3
:102A7000223F000705810310000A0705010310002B
:102A80000A090401000103010200092110012101CA
:102A90002236000705820340000A05010906A1014C
:102AA000050719E029E71500250175019508810240
:102AB000950175088103950575010508190129051A
:102AC000910295017503910395067508150025651A
:102AD0000507190029658100C005010902A10185CA
:102AE000010901A100050919012903150025019516
:102AF00003750181029501750581030501093009FE
:102B00003109381581257F750895038106C0C004F9
:102B10000309042603530054004D0069006300724A
:102B2000006F0065006C0065006300740072006F48
:102B3000006E006900630073001E03530054004DD3
:102B4000003300320020004A006F007900730074E7
:102B500000690063006B0000782B00080000002073
:102B60003401000028010008042C00083401002072
:102B70007C0200008401000841141A03531254120D
:102B80004D123312321231021130130B091B08138C
:102B9000040B100918040A151B18290481230301CA
:102BA0001A45281A770413470A1B0849041A9D047A
:102BB000133B0B1B088F041A5B041A69041A770471
:102BC00041324029401A432409165C1A451C134619
:102BD0002A3308121A580832421A9A08323F1A6ADF
:102BE0000832091AD90832365A8A10130F2B3308C3
:102BF000041A130832261A3908321E1914B3201A7F
:042C000019AF011DEA
:04000005080000ED02
:00000001FF
